{
  "contractName": "Exchange",
  "abi": [
    {
      "inputs": [
        {
          "internalType": "address",
          "name": "_dexToken",
          "type": "address"
        },
        {
          "internalType": "address",
          "name": "_dgtToken",
          "type": "address"
        }
      ],
      "stateMutability": "nonpayable",
      "type": "constructor"
    },
    {
      "inputs": [],
      "name": "admin",
      "outputs": [
        {
          "internalType": "address",
          "name": "",
          "type": "address"
        }
      ],
      "stateMutability": "view",
      "type": "function",
      "constant": true
    },
    {
      "inputs": [
        {
          "internalType": "address",
          "name": "",
          "type": "address"
        }
      ],
      "name": "deposited",
      "outputs": [
        {
          "internalType": "uint256",
          "name": "",
          "type": "uint256"
        }
      ],
      "stateMutability": "view",
      "type": "function",
      "constant": true
    },
    {
      "inputs": [],
      "name": "dexToken",
      "outputs": [
        {
          "internalType": "contract IERC20",
          "name": "",
          "type": "address"
        }
      ],
      "stateMutability": "view",
      "type": "function",
      "constant": true
    },
    {
      "inputs": [],
      "name": "dgtToken",
      "outputs": [
        {
          "internalType": "contract IERC20",
          "name": "",
          "type": "address"
        }
      ],
      "stateMutability": "view",
      "type": "function",
      "constant": true
    },
    {
      "inputs": [
        {
          "internalType": "address",
          "name": "",
          "type": "address"
        }
      ],
      "name": "issuedTokens",
      "outputs": [
        {
          "internalType": "uint256",
          "name": "",
          "type": "uint256"
        }
      ],
      "stateMutability": "view",
      "type": "function",
      "constant": true
    },
    {
      "inputs": [
        {
          "internalType": "address",
          "name": "",
          "type": "address"
        }
      ],
      "name": "toBeIssued",
      "outputs": [
        {
          "internalType": "uint256",
          "name": "",
          "type": "uint256"
        }
      ],
      "stateMutability": "view",
      "type": "function",
      "constant": true
    },
    {
      "inputs": [
        {
          "internalType": "uint256",
          "name": "_amount",
          "type": "uint256"
        },
        {
          "internalType": "uint256",
          "name": "_product",
          "type": "uint256"
        }
      ],
      "name": "depositCoins",
      "outputs": [],
      "stateMutability": "nonpayable",
      "type": "function"
    },
    {
      "inputs": [],
      "name": "issueTokens",
      "outputs": [],
      "stateMutability": "nonpayable",
      "type": "function"
    },
    {
      "inputs": [
        {
          "internalType": "uint256",
          "name": "_amount",
          "type": "uint256"
        },
        {
          "internalType": "address",
          "name": "_peer1",
          "type": "address"
        },
        {
          "internalType": "address",
          "name": "_peer2",
          "type": "address"
        }
      ],
      "name": "groupExecute",
      "outputs": [],
      "stateMutability": "nonpayable",
      "type": "function"
    },
    {
      "inputs": [],
      "name": "depositedCoins",
      "outputs": [
        {
          "internalType": "uint256",
          "name": "",
          "type": "uint256"
        }
      ],
      "stateMutability": "view",
      "type": "function",
      "constant": true
    },
    {
      "inputs": [],
      "name": "issuedToken",
      "outputs": [
        {
          "internalType": "uint256",
          "name": "",
          "type": "uint256"
        }
      ],
      "stateMutability": "view",
      "type": "function",
      "constant": true
    }
  ],
  "bytecode": "0x608060405234801561001057600080fd5b50604051610e20380380610e208339818101604052604081101561003357600080fd5b81019080805190602001909291908051906020019092919050505081600360006101000a81548173ffffffffffffffffffffffffffffffffffffffff021916908373ffffffffffffffffffffffffffffffffffffffff16021790555080600460006101000a81548173ffffffffffffffffffffffffffffffffffffffff021916908373ffffffffffffffffffffffffffffffffffffffff16021790555033600560006101000a81548173ffffffffffffffffffffffffffffffffffffffff021916908373ffffffffffffffffffffffffffffffffffffffff1602179055505050610cfe806101226000396000f3fe608060405234801561001057600080fd5b50600436106100a95760003560e01c80637ba71c55116100715780637ba71c551461019a578063a0b498a4146101b8578063cb13cddb14610210578063cbc8525a14610268578063d95cd77e1461029c578063f851a4401461030a576100a9565b806316cfc4c1146100ae578063417d845c146100e257806360ab5852146101005780636dd5d4f91461010a57806375a9297614610142575b600080fd5b6100b661033e565b604051808273ffffffffffffffffffffffffffffffffffffffff16815260200191505060405180910390f35b6100ea610364565b6040518082815260200191505060405180910390f35b6101086103ab565b005b6101406004803603604081101561012057600080fd5b81019080803590602001909291908035906020019092919050505061050a565b005b6101846004803603602081101561015857600080fd5b81019080803573ffffffffffffffffffffffffffffffffffffffff169060200190929190505050610609565b6040518082815260200191505060405180910390f35b6101a2610621565b6040518082815260200191505060405180910390f35b6101fa600480360360208110156101ce57600080fd5b81019080803573ffffffffffffffffffffffffffffffffffffffff169060200190929190505050610667565b6040518082815260200191505060405180910390f35b6102526004803603602081101561022657600080fd5b81019080803573ffffffffffffffffffffffffffffffffffffffff16906020019092919050505061067f565b6040518082815260200191505060405180910390f35b610270610697565b604051808273ffffffffffffffffffffffffffffffffffffffff16815260200191505060405180910390f35b610308600480360360608110156102b257600080fd5b8101908080359060200190929190803573ffffffffffffffffffffffffffffffffffffffff169060200190929190803573ffffffffffffffffffffffffffffffffffffffff1690602001909291905050506106bd565b005b610312610760565b604051808273ffffffffffffffffffffffffffffffffffffffff16815260200191505060405180910390f35b600360009054906101000a900473ffffffffffffffffffffffffffffffffffffffff1681565b6000600260003373ffffffffffffffffffffffffffffffffffffffff1673ffffffffffffffffffffffffffffffffffffffff16815260200190815260200160002054905090565b61043733600160003373ffffffffffffffffffffffffffffffffffffffff1673ffffffffffffffffffffffffffffffffffffffff16815260200190815260200160002054600460009054906101000a900473ffffffffffffffffffffffffffffffffffffffff1673ffffffffffffffffffffffffffffffffffffffff166107869092919063ffffffff16565b600160003373ffffffffffffffffffffffffffffffffffffffff1673ffffffffffffffffffffffffffffffffffffffff16815260200190815260200160002054600260003373ffffffffffffffffffffffffffffffffffffffff1673ffffffffffffffffffffffffffffffffffffffff168152602001908152602001600020600082825401925050819055506000600160003373ffffffffffffffffffffffffffffffffffffffff1673ffffffffffffffffffffffffffffffffffffffff16815260200190815260200160002081905550565b610559333084600360009054906101000a900473ffffffffffffffffffffffffffffffffffffffff1673ffffffffffffffffffffffffffffffffffffffff16610828909392919063ffffffff16565b816000803373ffffffffffffffffffffffffffffffffffffffff1673ffffffffffffffffffffffffffffffffffffffff16815260200190815260200160002060008282540192505081905550670de0b6b3a76400008183816105b757fe5b0402600160003373ffffffffffffffffffffffffffffffffffffffff1673ffffffffffffffffffffffffffffffffffffffff168152602001908152602001600020600082825401925050819055505050565b60016020528060005260406000206000915090505481565b60008060003373ffffffffffffffffffffffffffffffffffffffff1673ffffffffffffffffffffffffffffffffffffffff16815260200190815260200160002054905090565b60026020528060005260406000206000915090505481565b60006020528060005260406000206000915090505481565b600460009054906101000a900473ffffffffffffffffffffffffffffffffffffffff1681565b61070c828285600360009054906101000a900473ffffffffffffffffffffffffffffffffffffffff1673ffffffffffffffffffffffffffffffffffffffff16610828909392919063ffffffff16565b61075b818385600460009054906101000a900473ffffffffffffffffffffffffffffffffffffffff1673ffffffffffffffffffffffffffffffffffffffff16610828909392919063ffffffff16565b505050565b600560009054906101000a900473ffffffffffffffffffffffffffffffffffffffff1681565b6108238363a9059cbb60e01b8484604051602401808373ffffffffffffffffffffffffffffffffffffffff16815260200182815260200192505050604051602081830303815290604052907bffffffffffffffffffffffffffffffffffffffffffffffffffffffff19166020820180517bffffffffffffffffffffffffffffffffffffffffffffffffffffffff83818316178352505050506108e9565b505050565b6108e3846323b872dd60e01b858585604051602401808473ffffffffffffffffffffffffffffffffffffffff1681526020018373ffffffffffffffffffffffffffffffffffffffff1681526020018281526020019350505050604051602081830303815290604052907bffffffffffffffffffffffffffffffffffffffffffffffffffffffff19166020820180517bffffffffffffffffffffffffffffffffffffffffffffffffffffffff83818316178352505050506108e9565b50505050565b606061094b826040518060400160405280602081526020017f5361666545524332303a206c6f772d6c6576656c2063616c6c206661696c65648152508573ffffffffffffffffffffffffffffffffffffffff166109d89092919063ffffffff16565b90506000815111156109d35780806020019051602081101561096c57600080fd5b81019080805190602001909291905050506109d2576040517f08c379a000000000000000000000000000000000000000000000000000000000815260040180806020018281038252602a815260200180610c9f602a913960400191505060405180910390fd5b5b505050565b60606109e784846000856109f0565b90509392505050565b606082471015610a4b576040517f08c379a0000000000000000000000000000000000000000000000000000000008152600401808060200182810382526026815260200180610c796026913960400191505060405180910390fd5b610a5485610b99565b610ac6576040517f08c379a000000000000000000000000000000000000000000000000000000000815260040180806020018281038252601d8152602001807f416464726573733a2063616c6c20746f206e6f6e2d636f6e747261637400000081525060200191505060405180910390fd5b600060608673ffffffffffffffffffffffffffffffffffffffff1685876040518082805190602001908083835b60208310610b165780518252602082019150602081019050602083039250610af3565b6001836020036101000a03801982511681845116808217855250505050505090500191505060006040518083038185875af1925050503d8060008114610b78576040519150601f19603f3d011682016040523d82523d6000602084013e610b7d565b606091505b5091509150610b8d828286610bac565b92505050949350505050565b600080823b905060008111915050919050565b60608315610bbc57829050610c71565b600083511115610bcf5782518084602001fd5b816040517f08c379a00000000000000000000000000000000000000000000000000000000081526004018080602001828103825283818151815260200191508051906020019080838360005b83811015610c36578082015181840152602081019050610c1b565b50505050905090810190601f168015610c635780820380516001836020036101000a031916815260200191505b509250505060405180910390fd5b939250505056fe416464726573733a20696e73756666696369656e742062616c616e636520666f722063616c6c5361666545524332303a204552433230206f7065726174696f6e20646964206e6f742073756363656564a264697066735822122088a459c6121359cd7a0a008319d541af7d97b2bff2df58a0649aa3656f617f9464736f6c63430007000033",
  "immutableReferences": {},
  "source": "// SPDX-License-Identifier: UNLICENSED\npragma solidity 0.7.0;\n\nimport \"@openzeppelin/contracts/token/ERC20/IERC20.sol\";\nimport \"@openzeppelin/contracts/utils/Address.sol\";\nimport \"@openzeppelin/contracts/token/ERC20/SafeERC20.sol\";\n// import \"@openzeppelin/contracts/token/ERC20/utils/SafeERC20.sol\";\nimport \"@openzeppelin/contracts/token/ERC20/ERC20.sol\";\n\ncontract Exchange {\n    using SafeERC20 for IERC20;\n    mapping(address => uint256) public deposited;\n    mapping(address => uint256) public toBeIssued;\n    mapping(address => uint256) public issuedTokens;\n    IERC20 public dexToken;\n    IERC20 public dgtToken;\n    address public admin;\n\n    constructor(address _dexToken, address _dgtToken) {\n        dexToken = IERC20(_dexToken);\n        dgtToken = IERC20(_dgtToken);\n        admin = msg.sender;\n    }\n\n    function depositCoins(uint256 _amount,uint256 _product) external {\n        // dexToken.safeTransferFrom(msg.sender, address(this), _amount);\n        dexToken.safeTransferFrom(msg.sender, address(this), _amount);\n\n        deposited[msg.sender] += _amount;\n        toBeIssued[msg.sender] += (_amount/_product)*(10**18);\n    }\n    // function issueTokens() external {\n    //     dgtToken.safeTransfer(msg.sender, toBeIssued[msg.sender]);\n    //     // dgtToken.safeTransfer(msg.sender, toBeIssued[msg.sender]);\n\n    //     issuedTokens[msg.sender] += toBeIssued[msg.sender];\n    //     toBeIssued[msg.sender] = 0;\n    // }\n     function issueTokens() external{\n        dgtToken.safeTransfer(msg.sender, toBeIssued[msg.sender]);\n        // dgtToken.safeTransfer(msg.sender, toBeIssued[msg.sender]);\n\n        issuedTokens[msg.sender] += toBeIssued[msg.sender];\n        toBeIssued[msg.sender] = 0;\n    }\n    function groupExecute(uint256 _amount,address _peer1,address _peer2) external{\n\n        dexToken.safeTransferFrom(_peer1, _peer2, _amount);\n        dgtToken.safeTransferFrom(_peer2, _peer1, _amount);\n        // dexToken.safeTransferFrom(_peer1, address(this), _amount);\n        // revert(\"1st Transaction\");\n        // dgtToken.safeTransferFrom(_peer2, address(this), _amount);\n\n        // revert(\"1st Transaction\");\n\n        // revert(\"2nd Transaction\");\n        // dexToken.safeTransfer(_peer2, _amount);\n        // revert(\"3rd Transaction\");\n        // dgtToken.safeTransfer(_peer1,_amount);\n        // revert(\"4th Transaction\");\n    }\n    function depositedCoins() external view returns (uint256) {\n        return deposited[msg.sender];\n    }\n\n    function issuedToken() external view returns (uint256) {\n        return issuedTokens[msg.sender];\n    }\n}\n",
  "sourcePath": "E:\\outSource\\blockchain\\product-authenticity-checker\\src\\contracts\\DefiExchange.sol",
  "compiler": {
    "name": "solc",
    "version": "0.7.0+commit.9e61f92b.Emscripten.clang"
  },
  "schemaVersion": "3.4.7",
  "updatedAt": "2022-04-30T14:18:00.896Z",
  "networkType": "ethereum",
  "devdoc": {
    "kind": "dev",
    "methods": {},
    "version": 1
  },
  "userdoc": {
    "kind": "user",
    "methods": {},
    "version": 1
  }
}