{
  "contractName": "ProductAuthenticator",
  "abi": [
    {
      "inputs": [],
      "stateMutability": "nonpayable",
      "type": "constructor"
    },
    {
      "anonymous": false,
      "inputs": [
        {
          "indexed": false,
          "internalType": "string",
          "name": "emitted",
          "type": "string"
        }
      ],
      "name": "InValidProduct",
      "type": "event"
    },
    {
      "anonymous": false,
      "inputs": [
        {
          "indexed": false,
          "internalType": "bool",
          "name": "done",
          "type": "bool"
        },
        {
          "indexed": false,
          "internalType": "string",
          "name": "emitted",
          "type": "string"
        }
      ],
      "name": "IsAdded",
      "type": "event"
    },
    {
      "anonymous": false,
      "inputs": [
        {
          "indexed": false,
          "internalType": "bool",
          "name": "isValidUser",
          "type": "bool"
        },
        {
          "indexed": false,
          "internalType": "string",
          "name": "emitted",
          "type": "string"
        }
      ],
      "name": "NotAuthorised",
      "type": "event"
    },
    {
      "anonymous": false,
      "inputs": [
        {
          "indexed": false,
          "internalType": "string",
          "name": "id",
          "type": "string"
        },
        {
          "indexed": false,
          "internalType": "string",
          "name": "brand",
          "type": "string"
        },
        {
          "indexed": false,
          "internalType": "string",
          "name": "model",
          "type": "string"
        },
        {
          "indexed": false,
          "internalType": "address",
          "name": "ownedBy",
          "type": "address"
        },
        {
          "indexed": false,
          "internalType": "string[]",
          "name": "scannedBy",
          "type": "string[]"
        }
      ],
      "name": "ProductDetails",
      "type": "event"
    },
    {
      "inputs": [
        {
          "internalType": "string",
          "name": "_id",
          "type": "string"
        },
        {
          "internalType": "string",
          "name": "_brand",
          "type": "string"
        },
        {
          "internalType": "string",
          "name": "_model",
          "type": "string"
        }
      ],
      "name": "addProduct",
      "outputs": [],
      "stateMutability": "nonpayable",
      "type": "function"
    },
    {
      "inputs": [
        {
          "internalType": "string",
          "name": "_id",
          "type": "string"
        }
      ],
      "name": "getProduct",
      "outputs": [],
      "stateMutability": "nonpayable",
      "type": "function"
    },
    {
      "inputs": [
        {
          "internalType": "string",
          "name": "_name",
          "type": "string"
        },
        {
          "internalType": "string",
          "name": "_location",
          "type": "string"
        }
      ],
      "name": "addRetailer",
      "outputs": [
        {
          "internalType": "string",
          "name": "response",
          "type": "string"
        }
      ],
      "stateMutability": "nonpayable",
      "type": "function"
    },
    {
      "inputs": [
        {
          "internalType": "string",
          "name": "_name",
          "type": "string"
        },
        {
          "internalType": "string",
          "name": "_phone",
          "type": "string"
        }
      ],
      "name": "addCustomer",
      "outputs": [
        {
          "internalType": "string",
          "name": "response",
          "type": "string"
        }
      ],
      "stateMutability": "nonpayable",
      "type": "function"
    },
    {
      "inputs": [
        {
          "internalType": "string",
          "name": "_id",
          "type": "string"
        }
      ],
      "name": "checkOwnership",
      "outputs": [
        {
          "internalType": "bool",
          "name": "response",
          "type": "bool"
        }
      ],
      "stateMutability": "view",
      "type": "function",
      "constant": true
    },
    {
      "inputs": [],
      "name": "getCustomerDetails",
      "outputs": [
        {
          "internalType": "string",
          "name": "name",
          "type": "string"
        },
        {
          "internalType": "string",
          "name": "phone",
          "type": "string"
        }
      ],
      "stateMutability": "view",
      "type": "function",
      "constant": true
    },
    {
      "inputs": [],
      "name": "getRetailerDetails",
      "outputs": [
        {
          "internalType": "string",
          "name": "name",
          "type": "string"
        },
        {
          "internalType": "string",
          "name": "location",
          "type": "string"
        }
      ],
      "stateMutability": "view",
      "type": "function",
      "constant": true
    },
    {
      "inputs": [],
      "name": "fetchUserDetails",
      "outputs": [
        {
          "internalType": "string",
          "name": "userType",
          "type": "string"
        }
      ],
      "stateMutability": "view",
      "type": "function",
      "constant": true
    }
  ],
  "bytecode": "0x608060405234801561001057600080fd5b50336000806101000a81548173ffffffffffffffffffffffffffffffffffffffff021916908373ffffffffffffffffffffffffffffffffffffffff1602179055506120e7806100606000396000f3fe608060405234801561001057600080fd5b50600436106100885760003560e01c806368111cce1161005b57806368111cce14610116578063bffd1ea914610132578063c0ce26d614610162578063fc006e781461019257610088565b80630e34b00e1461008d57806315d4d561146100a95780633190abc0146100c85780635bb29721146100f8575b600080fd5b6100a760048036038101906100a29190611929565b6101b1565b005b6100b1610441565b6040516100bf929190611dde565b60405180910390f35b6100e260048036038101906100dd91906118bd565b610667565b6040516100ef9190611dbc565b60405180910390f35b6101006108df565b60405161010d9190611dbc565b60405180910390f35b610130600480360381019061012b919061187c565b610ad2565b005b61014c6004803603810190610147919061187c565b61104e565b6040516101599190611ce7565b60405180910390f35b61017c600480360381019061017791906118bd565b611093565b6040516101899190611dbc565b60405180910390f35b61019a611366565b6040516101a8929190611dde565b60405180910390f35b6001836040516101c19190611cd0565b908152602001604051809103902060020160149054906101000a900460ff16156102245760007f5135208907b58126c93e680556d53a9b0c3f52d31fd5b96cab041a2a62bf398f816040516102169190611d8e565b60405180910390a15061043c565b600360003373ffffffffffffffffffffffffffffffffffffffff1673ffffffffffffffffffffffffffffffffffffffff16815260200190815260200160002060030160009054906101000a900460ff16156104005761028161158c565b82816000018190525081816020018190525033816040019073ffffffffffffffffffffffffffffffffffffffff16908173ffffffffffffffffffffffffffffffffffffffff16815250506001816060019015159081151581525050806001856040516102ed9190611cd0565b908152602001604051809103902060008201518160000190805190602001906103179291906115d3565b5060208201518160010190805190602001906103349291906115d3565b5060408201518160020160006101000a81548173ffffffffffffffffffffffffffffffffffffffff021916908373ffffffffffffffffffffffffffffffffffffffff16021790555060608201518160020160146101000a81548160ff02191690831515021790555060808201518160030190805190602001906103b8929190611659565b509050506000600190507f5135208907b58126c93e680556d53a9b0c3f52d31fd5b96cab041a2a62bf398f816040516103f19190611d60565b60405180910390a1505061043b565b60007f5135208907b58126c93e680556d53a9b0c3f52d31fd5b96cab041a2a62bf398f816040516104319190611d8e565b60405180910390a1505b5b505050565b606080600260003373ffffffffffffffffffffffffffffffffffffffff1673ffffffffffffffffffffffffffffffffffffffff16815260200190815260200160002060020160009054906101000a900460ff161561063e57600260003373ffffffffffffffffffffffffffffffffffffffff1673ffffffffffffffffffffffffffffffffffffffff168152602001908152602001600020600001600260003373ffffffffffffffffffffffffffffffffffffffff1673ffffffffffffffffffffffffffffffffffffffff16815260200190815260200160002060010181805461052990612010565b80601f016020809104026020016040519081016040528092919081815260200182805461055590612010565b80156105a25780601f10610577576101008083540402835291602001916105a2565b820191906000526020600020905b81548152906001019060200180831161058557829003601f168201915b505050505091508080546105b590612010565b80601f01602080910402602001604051908101604052809291908181526020018280546105e190612010565b801561062e5780601f106106035761010080835404028352916020019161062e565b820191906000526020600020905b81548152906001019060200180831161061157829003601f168201915b5050505050905091509150610663565b6040518060200160405280600081525060405180602001604052806000815250915091505b9091565b60606040518060400160405280601c81526020017f416c7265616479206578697374696e67206163636f756e742e2e202100000000815250905060011515600260003373ffffffffffffffffffffffffffffffffffffffff1673ffffffffffffffffffffffffffffffffffffffff16815260200190815260200160002060020160009054906101000a900460ff16151514158015610759575060011515600360003373ffffffffffffffffffffffffffffffffffffffff1673ffffffffffffffffffffffffffffffffffffffff16815260200190815260200160002060030160009054906101000a900460ff16151514155b1561089e576107666116b9565b838160000181905250828160200181905250600181604001901515908115158152505080600260003373ffffffffffffffffffffffffffffffffffffffff1673ffffffffffffffffffffffffffffffffffffffff16815260200190815260200160002060008201518160000190805190602001906107e59291906115d3565b5060208201518160010190805190602001906108029291906115d3565b5060408201518160020160006101000a81548160ff0219169083151502179055509050506040518060400160405280601281526020017f4e657720437573746f6d6572204164646564000000000000000000000000000081525091507f5135208907b58126c93e680556d53a9b0c3f52d31fd5b96cab041a2a62bf398f600183604051610890929190611d02565b60405180910390a1506108d9565b7f5135208907b58126c93e680556d53a9b0c3f52d31fd5b96cab041a2a62bf398f6000826040516108d0929190611d02565b60405180910390a15b92915050565b60603373ffffffffffffffffffffffffffffffffffffffff1660008054906101000a900473ffffffffffffffffffffffffffffffffffffffff1673ffffffffffffffffffffffffffffffffffffffff161415610972576040518060400160405280600581526020017f4f776e65720000000000000000000000000000000000000000000000000000008152509050610acf565b600360003373ffffffffffffffffffffffffffffffffffffffff1673ffffffffffffffffffffffffffffffffffffffff16815260200190815260200160002060030160009054906101000a900460ff1615610a04576040518060400160405280600881526020017f52657461696c65720000000000000000000000000000000000000000000000008152509050610acf565b600260003373ffffffffffffffffffffffffffffffffffffffff1673ffffffffffffffffffffffffffffffffffffffff16815260200190815260200160002060020160009054906101000a900460ff1615610a96576040518060400160405280600881526020017f437573746f6d65720000000000000000000000000000000000000000000000008152509050610acf565b6040518060400160405280600e81526020017f55736572204e6f7420466f756e6400000000000000000000000000000000000081525090505b90565b600181604051610ae29190611cd0565b908152602001604051809103902060020160149054906101000a900460ff161561101557600360003373ffffffffffffffffffffffffffffffffffffffff1673ffffffffffffffffffffffffffffffffffffffff16815260200190815260200160002060030160009054906101000a900460ff1615610d6d57600181604051610b6b9190611cd0565b9081526020016040518091039020600301600360003373ffffffffffffffffffffffffffffffffffffffff1673ffffffffffffffffffffffffffffffffffffffff16815260200190815260200160002060000190806001815401808255809150506001900390600052602060002001600090919091909150908054610bef90612010565b610bfa9291906116dc565b50600181604051610c0b9190611cd0565b908152602001604051809103902060030180600181540180825580915050600190039060005260206000200160006040518060400160405280600a81526020017f3a52657461696c6572200000000000000000000000000000000000000000000081525090919091509080519060200190610c879291906115d3565b507fc44badf808c601862acbe2565605ba691866f55fc9bf70609474af5b6e9c32d181600183604051610cba9190611cd0565b9081526020016040518091039020600001600184604051610cdb9190611cd0565b9081526020016040518091039020600101600185604051610cfc9190611cd0565b908152602001604051809103902060020160009054906101000a900473ffffffffffffffffffffffffffffffffffffffff16600186604051610d3e9190611cd0565b9081526020016040518091039020600301604051610d60959493929190611e15565b60405180910390a1611010565b600260003373ffffffffffffffffffffffffffffffffffffffff1673ffffffffffffffffffffffffffffffffffffffff16815260200190815260200160002060020160009054906101000a900460ff1615610fd457600181604051610dd29190611cd0565b9081526020016040518091039020600301600260003373ffffffffffffffffffffffffffffffffffffffff1673ffffffffffffffffffffffffffffffffffffffff16815260200190815260200160002060000190806001815401808255809150506001900390600052602060002001600090919091909150908054610e5690612010565b610e619291906116dc565b50600181604051610e729190611cd0565b908152602001604051809103902060030180600181540180825580915050600190039060005260206000200160006040518060400160405280600a81526020017f3a437573746f6d6572200000000000000000000000000000000000000000000081525090919091509080519060200190610eee9291906115d3565b507fc44badf808c601862acbe2565605ba691866f55fc9bf70609474af5b6e9c32d181600183604051610f219190611cd0565b9081526020016040518091039020600001600184604051610f429190611cd0565b9081526020016040518091039020600101600185604051610f639190611cd0565b908152602001604051809103902060020160009054906101000a900473ffffffffffffffffffffffffffffffffffffffff16600186604051610fa59190611cd0565b9081526020016040518091039020600301604051610fc7959493929190611e15565b60405180910390a161100f565b60007f49184b4288a6de12ff7070e66dbf62266d1204722a1f33704b5a426644fb8cd5816040516110059190611d32565b60405180910390a1505b5b61104b565b7f229c04c4be5b300610734278f483d8ec52378f5a68af1c632775ac3699720ec460405161104290611e84565b60405180910390a15b50565b60006001826040516110609190611cd0565b908152602001604051809103902060020160149054906101000a900460ff161561108d576001905061108e565b5b919050565b60606040518060400160405280601c81526020017f416c7265616479206578697374696e67206163636f756e742e2e202100000000815250905060011515600360003373ffffffffffffffffffffffffffffffffffffffff1673ffffffffffffffffffffffffffffffffffffffff16815260200190815260200160002060030160009054906101000a900460ff16151514158015611185575060011515600260003373ffffffffffffffffffffffffffffffffffffffff1673ffffffffffffffffffffffffffffffffffffffff16815260200190815260200160002060020160009054906101000a900460ff16151514155b1561132557611192611769565b838160000181905250828160400181905250600181606001901515908115158152505080600360003373ffffffffffffffffffffffffffffffffffffffff1673ffffffffffffffffffffffffffffffffffffffff16815260200190815260200160002060008201518160000190805190602001906112119291906115d3565b50602082015181600101908051906020019061122e9291906115d3565b50604082015181600201908051906020019061124b9291906115d3565b5060608201518160030160006101000a81548160ff0219169083151502179055509050506040518060400160405280600881526020017f52657461696c657200000000000000000000000000000000000000000000000081525081602001819052506040518060400160405280601281526020017f4e65772052657461696c6572204164646564000000000000000000000000000081525091507f5135208907b58126c93e680556d53a9b0c3f52d31fd5b96cab041a2a62bf398f600183604051611317929190611d02565b60405180910390a150611360565b7f5135208907b58126c93e680556d53a9b0c3f52d31fd5b96cab041a2a62bf398f600082604051611357929190611d02565b60405180910390a15b92915050565b606080600360003373ffffffffffffffffffffffffffffffffffffffff1673ffffffffffffffffffffffffffffffffffffffff16815260200190815260200160002060030160009054906101000a900460ff161561156357600360003373ffffffffffffffffffffffffffffffffffffffff1673ffffffffffffffffffffffffffffffffffffffff168152602001908152602001600020600001600360003373ffffffffffffffffffffffffffffffffffffffff1673ffffffffffffffffffffffffffffffffffffffff16815260200190815260200160002060020181805461144e90612010565b80601f016020809104026020016040519081016040528092919081815260200182805461147a90612010565b80156114c75780601f1061149c576101008083540402835291602001916114c7565b820191906000526020600020905b8154815290600101906020018083116114aa57829003601f168201915b505050505091508080546114da90612010565b80601f016020809104026020016040519081016040528092919081815260200182805461150690612010565b80156115535780601f1061152857610100808354040283529160200191611553565b820191906000526020600020905b81548152906001019060200180831161153657829003601f168201915b5050505050905091509150611588565b6040518060200160405280600081525060405180602001604052806000815250915091505b9091565b6040518060a001604052806060815260200160608152602001600073ffffffffffffffffffffffffffffffffffffffff168152602001600015158152602001606081525090565b8280546115df90612010565b90600052602060002090601f0160209004810192826116015760008555611648565b82601f1061161a57805160ff1916838001178555611648565b82800160010185558215611648579182015b8281111561164757825182559160200191906001019061162c565b5b5090506116559190611793565b5090565b8280548282559060005260206000209081019282156116a8579160200282015b828111156116a75782518290805190602001906116979291906115d3565b5091602001919060010190611679565b5b5090506116b591906117b0565b5090565b604051806060016040528060608152602001606081526020016000151581525090565b8280546116e890612010565b90600052602060002090601f01602090048101928261170a5760008555611758565b82601f1061171b5780548555611758565b8280016001018555821561175857600052602060002091601f016020900482015b8281111561175757825482559160010191906001019061173c565b5b5090506117659190611793565b5090565b60405180608001604052806060815260200160608152602001606081526020016000151581525090565b5b808211156117ac576000816000905550600101611794565b5090565b5b808211156117d057600081816117c791906117d4565b506001016117b1565b5090565b5080546117e090612010565b6000825580601f106117f25750611811565b601f0160209004906000526020600020908101906118109190611793565b5b50565b600061182761182284611ed5565b611ea4565b90508281526020810184848401111561183f57600080fd5b61184a848285611fce565b509392505050565b600082601f83011261186357600080fd5b8135611873848260208601611814565b91505092915050565b60006020828403121561188e57600080fd5b600082013567ffffffffffffffff8111156118a857600080fd5b6118b484828501611852565b91505092915050565b600080604083850312156118d057600080fd5b600083013567ffffffffffffffff8111156118ea57600080fd5b6118f685828601611852565b925050602083013567ffffffffffffffff81111561191357600080fd5b61191f85828601611852565b9150509250929050565b60008060006060848603121561193e57600080fd5b600084013567ffffffffffffffff81111561195857600080fd5b61196486828701611852565b935050602084013567ffffffffffffffff81111561198157600080fd5b61198d86828701611852565b925050604084013567ffffffffffffffff8111156119aa57600080fd5b6119b686828701611852565b9150509250925092565b60006119cc8383611ad0565b905092915050565b6119dd81611f90565b82525050565b60006119ee82611f2f565b6119f88185611f52565b935083602082028501611a0a85611f05565b8060005b85811015611a4557848403895281611a2685826119c0565b9450611a3183611f45565b925060208a01995050600181019050611a0e565b50829750879550505050505092915050565b611a6081611fa2565b82525050565b6000611a7182611f3a565b611a7b8185611f74565b9350611a8b818560208601611fdd565b611a94816120a0565b840191505092915050565b6000611aaa82611f3a565b611ab48185611f85565b9350611ac4818560208601611fdd565b80840191505092915050565b60008154611add81612010565b611ae78186611f63565b94506001821660008114611b025760018114611b1457611b47565b60ff1983168652602086019350611b47565b611b1d85611f1a565b60005b83811015611b3f57815481890152600182019150602081019050611b20565b808801955050505b50505092915050565b60008154611b5d81612010565b611b678186611f74565b94506001821660008114611b825760018114611b9457611bc7565b60ff1983168652602086019350611bc7565b611b9d85611f1a565b60005b83811015611bbf57815481890152600182019150602081019050611ba0565b808801955050505b50505092915050565b6000611bdd601383611f74565b91507f556e617574686f727369656420416363657373000000000000000000000000006000830152602082019050919050565b6000611c1d600d83611f74565b91507f50726f64756374206164646564000000000000000000000000000000000000006000830152602082019050919050565b6000611c5d601183611f74565b91507f50726f64756374204e6f7420466f756e640000000000000000000000000000006000830152602082019050919050565b6000611c9d601983611f74565b91507f50726f647563742063616e6e6f742062652061646465642021000000000000006000830152602082019050919050565b6000611cdc8284611a9f565b915081905092915050565b6000602082019050611cfc6000830184611a57565b92915050565b6000604082019050611d176000830185611a57565b8181036020830152611d298184611a66565b90509392505050565b6000604082019050611d476000830184611a57565b8181036020830152611d5881611bd0565b905092915050565b6000604082019050611d756000830184611a57565b8181036020830152611d8681611c10565b905092915050565b6000604082019050611da36000830184611a57565b8181036020830152611db481611c90565b905092915050565b60006020820190508181036000830152611dd68184611a66565b905092915050565b60006040820190508181036000830152611df88185611a66565b90508181036020830152611e0c8184611a66565b90509392505050565b600060a0820190508181036000830152611e2f8188611a66565b90508181036020830152611e438187611b50565b90508181036040830152611e578186611b50565b9050611e6660608301856119d4565b8181036080830152611e7881846119e3565b90509695505050505050565b60006020820190508181036000830152611e9d81611c50565b9050919050565b6000604051905081810181811067ffffffffffffffff82111715611ecb57611eca612071565b5b8060405250919050565b600067ffffffffffffffff821115611ef057611eef612071565b5b601f19601f8301169050602081019050919050565b60008190508160005260206000209050919050565b60008190508160005260206000209050919050565b600081549050919050565b600081519050919050565b6000600182019050919050565b600082825260208201905092915050565b600082825260208201905092915050565b600082825260208201905092915050565b600081905092915050565b6000611f9b82611fae565b9050919050565b60008115159050919050565b600073ffffffffffffffffffffffffffffffffffffffff82169050919050565b82818337600083830152505050565b60005b83811015611ffb578082015181840152602081019050611fe0565b8381111561200a576000848401525b50505050565b6000600282049050600182168061202857607f821691505b6020821081141561203c5761203b612042565b5b50919050565b7f4e487b7100000000000000000000000000000000000000000000000000000000600052602260045260246000fd5b7f4e487b7100000000000000000000000000000000000000000000000000000000600052604160045260246000fd5b6000601f19601f830116905091905056fea2646970667358221220327a0778015f6ce505db4788dbdb54be3865fc6970a9e0b777a484eee18c878a64736f6c63430008000033",
  "immutableReferences": {},
  "source": "// SPDX-License-Identifier: UNLICENSED\r\npragma solidity ^0.8.0;\r\n\r\ncontract ProductAuthenticator {\r\n    address owner;\r\n    event IsAdded(bool done, string emitted);\r\n    event NotAuthorised(bool isValidUser, string emitted);\r\n    event InValidProduct(string emitted);\r\n    event ProductDetails(\r\n        string id,\r\n        string brand,\r\n        string model,\r\n        address ownedBy,\r\n    \r\n        string[] scannedBy\r\n    );\r\n\r\n    struct product {\r\n        string brand;\r\n        string model;\r\n     \r\n        address ownedBy;\r\n        bool exists;\r\n        string[] scannedBy;\r\n    }\r\n\r\n    // A struct which helps create a new customer\r\n    struct customer {\r\n        string name;\r\n        string phone;\r\n        bool exists;\r\n    }\r\n\r\n    struct retailer {\r\n        string name;\r\n        string control;\r\n        string location;\r\n        bool exists;\r\n    }\r\n\r\n    mapping(string => product) products;\r\n    mapping(address => customer) customers;\r\n    mapping(address => retailer) retailers;\r\n\r\n    constructor() {\r\n        owner = msg.sender;\r\n    }\r\n\r\n    // Function to add a new product\r\n    function addProduct(\r\n        string memory _id,\r\n        string memory _brand,\r\n    \r\n        string memory _model\r\n    ) public {\r\n        if(products[_id].exists){\r\n            bool done = false;\r\n            emit IsAdded(done, \"Product cannot be added !\");\r\n        }\r\n        else{\r\n        if(retailers[msg.sender].exists)\r\n        {\r\n        product memory newProduct;\r\n        newProduct.brand = _brand;\r\n        newProduct.model = _model;\r\n    \r\n        newProduct.ownedBy = msg.sender;\r\n        newProduct.exists = true;\r\n        products[_id] = newProduct;\r\n        bool done = true;\r\n        emit IsAdded(done, \"Product added\");\r\n        }\r\n        else\r\n        {\r\n            bool done = false;\r\n            emit IsAdded(done, \"Product cannot be added !\");\r\n        }\r\n    }\r\n}\r\n    // Function to fetch product details\r\n    function getProduct(string memory _id) public {\r\n        if (products[_id].exists) {\r\n            if (retailers[msg.sender].exists) {\r\n                products[_id].scannedBy.push((retailers[msg.sender].name));\r\n                products[_id].scannedBy.push((\":Retailer \"));\r\n                emit ProductDetails(\r\n                    _id,\r\n                    products[_id].brand,\r\n                    products[_id].model,\r\n                    products[_id].ownedBy,\r\n                    products[_id].scannedBy\r\n                    \r\n                );\r\n            }else if (customers[msg.sender].exists) {\r\n                products[_id].scannedBy.push((customers[msg.sender].name));\r\n                products[_id].scannedBy.push((\":Customer \"));\r\n                emit ProductDetails(\r\n                    _id,\r\n                    products[_id].brand,\r\n                    products[_id].model,\r\n                    products[_id].ownedBy,\r\n                    products[_id].scannedBy\r\n                    \r\n                );\r\n            }\r\n              else {\r\n                bool isValidUser = false;\r\n                emit NotAuthorised(isValidUser, \"Unauthorsied Access\");\r\n            }\r\n        } else {\r\n            emit InValidProduct(\"Product Not Found\");\r\n        }\r\n    }\r\n\r\n    function addRetailer(string memory _name, string memory _location)\r\n        public\r\n        returns (string memory response)\r\n    {\r\n        response = \"Already existing account.. !\";\r\n        if (retailers[msg.sender].exists != true && customers[msg.sender].exists != true) {\r\n            retailer memory newRetailer;\r\n            newRetailer.name = _name;\r\n            newRetailer.location = _location;\r\n            newRetailer.exists = true;\r\n            retailers[msg.sender] = newRetailer;\r\n            newRetailer.control=\"Retailer\";\r\n            response = \"New Retailer Added\";\r\n            emit IsAdded(true, response);\r\n            return response;\r\n        }\r\n        emit IsAdded(false, response);\r\n        return response;\r\n    }\r\n\r\n    function addCustomer(string memory _name, string memory _phone)\r\n        public\r\n        returns (string memory response)\r\n    {\r\n        response = \"Already existing account.. !\";\r\n        if (customers[msg.sender].exists != true && retailers[msg.sender].exists != true) {\r\n            customer memory newCustomer;\r\n            newCustomer.name = _name;\r\n            newCustomer.phone = _phone;\r\n            newCustomer.exists = true;\r\n            customers[msg.sender] = newCustomer;\r\n            response = \"New Customer Added\";\r\n            emit IsAdded(true, response);\r\n            return response;\r\n        }\r\n        emit IsAdded(false, response);\r\n        return response;\r\n    }\r\n\r\n    function checkOwnership(string memory _id)\r\n        public\r\n        view\r\n        returns (bool response)\r\n    {\r\n        response = false;\r\n        if (products[_id].exists) {\r\n            \r\n                response = true;\r\n                return response;\r\n            \r\n        }\r\n        return response;\r\n    }\r\n\r\n    function getCustomerDetails()\r\n        public\r\n        view\r\n        returns (string memory name, string memory phone)\r\n    {\r\n        if (customers[msg.sender].exists) {\r\n            return (customers[msg.sender].name, customers[msg.sender].phone);\r\n        }\r\n        return (\"\", \"\");\r\n    }\r\n\r\n    function getRetailerDetails()\r\n        public\r\n        view\r\n        returns (string memory name, string memory location)\r\n    {\r\n        if (retailers[msg.sender].exists) {\r\n            return (retailers[msg.sender].name, retailers[msg.sender].location);\r\n        }\r\n        return (\"\", \"\");\r\n    }\r\n\r\n    function fetchUserDetails()public view returns (string memory userType)\r\n        {\r\n        if (owner == msg.sender) {\r\n            return \"Owner\";\r\n        }\r\n        if (retailers[msg.sender].exists) {\r\n            return \"Retailer\";\r\n        }\r\n        if (customers[msg.sender].exists) {\r\n            return \"Customer\";\r\n        }\r\n        return \"User Not Found\";\r\n    }\r\n    // function fetchUserDetails() public view returns (address owne) {\r\n    //     return owner;\r\n    // }\r\n}",
  "sourcePath": "C:\\Users\\HP\\Desktop\\DESKTOP\\new desktop\\New folder (2)\\product-authenticity-checker\\src\\contracts\\ProductAuthenticator.sol",
  "compiler": {
    "name": "solc",
    "version": "0.8.0+commit.c7dfd78e.Emscripten.clang"
  },
  "schemaVersion": "3.4.7",
  "updatedAt": "2022-06-01T08:36:36.653Z",
  "networkType": "ethereum",
  "devdoc": {
    "kind": "dev",
    "methods": {},
    "version": 1
  },
  "userdoc": {
    "kind": "user",
    "methods": {},
    "version": 1
  }
}