{
  "contractName": "Sample",
  "abi": [
    {
      "anonymous": false,
      "inputs": [
        {
          "indexed": false,
          "internalType": "bool",
          "name": "done",
          "type": "bool"
        },
        {
          "indexed": false,
          "internalType": "string",
          "name": "emitted",
          "type": "string"
        }
      ],
      "name": "IsAdded",
      "type": "event"
    },
    {
      "inputs": [
        {
          "internalType": "string",
          "name": "_id",
          "type": "string"
        },
        {
          "internalType": "string",
          "name": "_brand",
          "type": "string"
        },
        {
          "internalType": "string",
          "name": "_model",
          "type": "string"
        }
      ],
      "name": "addProduct",
      "outputs": [],
      "stateMutability": "nonpayable",
      "type": "function"
    },
    {
      "inputs": [
        {
          "internalType": "string",
          "name": "_id",
          "type": "string"
        }
      ],
      "name": "getProduct",
      "outputs": [
        {
          "internalType": "string",
          "name": "id",
          "type": "string"
        },
        {
          "internalType": "string",
          "name": "brand",
          "type": "string"
        },
        {
          "internalType": "string",
          "name": "model",
          "type": "string"
        },
        {
          "internalType": "address",
          "name": "ownedBy",
          "type": "address"
        }
      ],
      "stateMutability": "view",
      "type": "function",
      "constant": true
    },
    {
      "inputs": [
        {
          "internalType": "string",
          "name": "_name",
          "type": "string"
        },
        {
          "internalType": "string",
          "name": "_phone",
          "type": "string"
        }
      ],
      "name": "addCustomer",
      "outputs": [
        {
          "internalType": "string",
          "name": "response",
          "type": "string"
        }
      ],
      "stateMutability": "nonpayable",
      "type": "function"
    }
  ],
  "bytecode": "0x608060405234801561001057600080fd5b50610d87806100206000396000f3fe608060405234801561001057600080fd5b50600436106100415760003560e01c80630e34b00e146100465780633190abc01461022f57806368111cce146103fa575b600080fd5b61022d6004803603606081101561005c57600080fd5b810190808035906020019064010000000081111561007957600080fd5b82018360208201111561008b57600080fd5b803590602001918460018302840111640100000000831117156100ad57600080fd5b91908080601f016020809104026020016040519081016040528093929190818152602001838380828437600081840152601f19601f8201169050808301925050505050505091929192908035906020019064010000000081111561011057600080fd5b82018360208201111561012257600080fd5b8035906020019184600183028401116401000000008311171561014457600080fd5b91908080601f016020809104026020016040519081016040528093929190818152602001838380828437600081840152601f19601f820116905080830192505050505050509192919290803590602001906401000000008111156101a757600080fd5b8201836020820111156101b957600080fd5b803590602001918460018302840111640100000000831117156101db57600080fd5b91908080601f016020809104026020016040519081016040528093929190818152602001838380828437600081840152601f19601f820116905080830192505050505050509192919290505050610623565b005b61037f6004803603604081101561024557600080fd5b810190808035906020019064010000000081111561026257600080fd5b82018360208201111561027457600080fd5b8035906020019184600183028401116401000000008311171561029657600080fd5b91908080601f016020809104026020016040519081016040528093929190818152602001838380828437600081840152601f19601f820116905080830192505050505050509192919290803590602001906401000000008111156102f957600080fd5b82018360208201111561030b57600080fd5b8035906020019184600183028401116401000000008311171561032d57600080fd5b91908080601f016020809104026020016040519081016040528093929190818152602001838380828437600081840152601f19601f820116905080830192505050505050509192919290505050610813565b6040518080602001828103825283818151815260200191508051906020019080838360005b838110156103bf5780820151818401526020810190506103a4565b50505050905090810190601f1680156103ec5780820380516001836020036101000a031916815260200191505b509250505060405180910390f35b6104b36004803603602081101561041057600080fd5b810190808035906020019064010000000081111561042d57600080fd5b82018360208201111561043f57600080fd5b8035906020019184600183028401116401000000008311171561046157600080fd5b91908080601f016020809104026020016040519081016040528093929190818152602001838380828437600081840152601f19601f820116905080830192505050505050509192919290505050610918565b604051808060200180602001806020018573ffffffffffffffffffffffffffffffffffffffff168152602001848103845288818151815260200191508051906020019080838360005b838110156105175780820151818401526020810190506104fc565b50505050905090810190601f1680156105445780820380516001836020036101000a031916815260200191505b50848103835287818151815260200191508051906020019080838360005b8381101561057d578082015181840152602081019050610562565b50505050905090810190601f1680156105aa5780820380516001836020036101000a031916815260200191505b50848103825286818151815260200191508051906020019080838360005b838110156105e35780820151818401526020810190506105c8565b50505050905090810190601f1680156106105780820380516001836020036101000a031916815260200191505b5097505050505050505060405180910390f35b61062b610c51565b82816000018190525081816020018190525033816040019073ffffffffffffffffffffffffffffffffffffffff16908173ffffffffffffffffffffffffffffffffffffffff16815250506001816060019015159081151581525050806001856040518082805190602001908083835b602083106106bd578051825260208201915060208101905060208303925061069a565b6001836020036101000a0380198251168184511680821785525050505050509050019150509081526020016040518091039020600082015181600001908051906020019061070c929190610c91565b506020820151816001019080519060200190610729929190610c91565b5060408201518160020160006101000a81548173ffffffffffffffffffffffffffffffffffffffff021916908373ffffffffffffffffffffffffffffffffffffffff16021790555060608201518160020160146101000a81548160ff0219169083151502179055509050506000600190507f5135208907b58126c93e680556d53a9b0c3f52d31fd5b96cab041a2a62bf398f81604051808215158152602001806020018281038252600e8152602001807f637573746f6d65722061646465640000000000000000000000000000000000008152506020019250505060405180910390a15050505050565b60606040518060400160405280600e81526020017f416c726561647920457869737473000000000000000000000000000000000000815250905060011515600260003373ffffffffffffffffffffffffffffffffffffffff1673ffffffffffffffffffffffffffffffffffffffff16815260200190815260200160002060020160009054906101000a900460ff16151514610911576108b0610d11565b83816000018190525082816020018190525060018160400190151590811515815250506040518060400160405280601281526020017f4e657720437573746f6d65722041646465640000000000000000000000000000815250915050610912565b5b92915050565b606080606060006001856040518082805190602001908083835b602083106109555780518252602082019150602081019050602083039250610932565b6001836020036101000a038019825116818451168082178552505050505050905001915050908152602001604051809103902060020160149054906101000a900460ff1615610c4957846001866040518082805190602001908083835b602083106109d557805182526020820191506020810190506020830392506109b2565b6001836020036101000a03801982511681845116808217855250505050505090500191505090815260200160405180910390206000016001876040518082805190602001908083835b60208310610a415780518252602082019150602081019050602083039250610a1e565b6001836020036101000a03801982511681845116808217855250505050505090500191505090815260200160405180910390206001016001886040518082805190602001908083835b60208310610aad5780518252602082019150602081019050602083039250610a8a565b6001836020036101000a038019825116818451168082178552505050505050905001915050908152602001604051809103902060020160009054906101000a900473ffffffffffffffffffffffffffffffffffffffff16828054600181600116156101000203166002900480601f016020809104026020016040519081016040528092919081815260200182805460018160011615610100020316600290048015610b995780601f10610b6e57610100808354040283529160200191610b99565b820191906000526020600020905b815481529060010190602001808311610b7c57829003601f168201915b50505050509250818054600181600116156101000203166002900480601f016020809104026020016040519081016040528092919081815260200182805460018160011615610100020316600290048015610c355780601f10610c0a57610100808354040283529160200191610c35565b820191906000526020600020905b815481529060010190602001808311610c1857829003601f168201915b505050505091509350935093509350610c4a565b5b9193509193565b60405180608001604052806060815260200160608152602001600073ffffffffffffffffffffffffffffffffffffffff1681526020016000151581525090565b828054600181600116156101000203166002900490600052602060002090601f016020900481019282601f10610cd257805160ff1916838001178555610d00565b82800160010185558215610d00579182015b82811115610cff578251825591602001919060010190610ce4565b5b509050610d0d9190610d34565b5090565b604051806060016040528060608152602001606081526020016000151581525090565b5b80821115610d4d576000816000905550600101610d35565b509056fea26469706673582212200903335633d3ae197d438eda8855948421b3a3a76b2fd3e9d69372b93827648264736f6c63430007000033",
  "immutableReferences": {},
  "source": "// SPDX-License-Identifier: UNLICENSED\r\npragma solidity ^0.7.0;\r\n\r\ncontract Sample {\r\n    address owner;\r\n    event IsAdded(bool done,string emitted);\r\n    struct product {\r\n        string brand;\r\n        string model;\r\n        address ownedBy;\r\n        bool exists;\r\n    }\r\n\r\n    // A struct which helps create a new customer\r\n    struct customer {\r\n        string name;\r\n        string phone;\r\n        bool isValid;\r\n    }\r\n\r\n    struct retailer {\r\n        string name;\r\n        string location;\r\n    }\r\n\r\n    mapping(string => product) products;\r\n    mapping(address => customer) customers;\r\n    mapping(string => retailer) retailers;\r\n\r\n    // Function to add a new product\r\n    function addProduct(\r\n        string memory _id,\r\n        string memory _brand,\r\n        string memory _model\r\n    ) public {\r\n        product memory newProduct;\r\n        newProduct.brand = _brand;\r\n        newProduct.model = _model;\r\n        newProduct.ownedBy = msg.sender;\r\n        newProduct.exists = true;\r\n        products[_id] = newProduct;\r\n\r\n        bool done = true;\r\n        emit IsAdded(done,\"customer added\");\r\n    }\r\n\r\n    // Function to fetch product details\r\n    function getProduct(string memory _id)\r\n        public view\r\n        returns (\r\n            string memory id,\r\n            string memory brand,\r\n            string memory model,\r\n            address ownedBy\r\n        )\r\n    {\r\n        if (products[_id].exists) {\r\n            // products[_id].scannedBy.push(msg.sender);\r\n            return (_id, products[_id].brand, products[_id].model,products[_id].ownedBy);\r\n        }\r\n        // return (\"\", \"\", \"\",);\r\n    }\r\n\r\n    function addCustomer(string memory _name, string memory _phone)\r\n        public\r\n        returns (string memory response)\r\n    {\r\n        response = \"Already Exists\";\r\n        if (customers[msg.sender].isValid != true) {\r\n            customer memory newCustomer;\r\n            newCustomer.name = _name;\r\n            newCustomer.phone = _phone;\r\n            newCustomer.isValid = true;\r\n            response = \"New Customer Added\";\r\n            return response;\r\n        }\r\n        return response;\r\n    }\r\n\r\n    // function checkOwnership(string memory _id) public returns (bool response) {\r\n    //     response = false;\r\n    //     if (products[_id].exists) {\r\n    //         if (msg.sender == products[_id].ownedBy) {\r\n    //             response = true;\r\n    //             return response;\r\n    //         }\r\n    //     }\r\n    //     return response;\r\n    // }\r\n}\r\n",
  "sourcePath": "E:\\outSource\\blockchain\\product-authenticity-checker\\src\\contracts\\Sample.sol",
  "compiler": {
    "name": "solc",
    "version": "0.7.0+commit.9e61f92b.Emscripten.clang"
  },
  "schemaVersion": "3.4.7",
  "updatedAt": "2022-05-01T13:25:42.043Z",
  "networkType": "ethereum",
  "devdoc": {
    "kind": "dev",
    "methods": {},
    "version": 1
  },
  "userdoc": {
    "kind": "user",
    "methods": {},
    "version": 1
  }
}