{
  "contractName": "Todos",
  "abi": [
    {
      "inputs": [
        {
          "internalType": "uint256",
          "name": "",
          "type": "uint256"
        }
      ],
      "name": "todos",
      "outputs": [
        {
          "internalType": "string",
          "name": "text",
          "type": "string"
        },
        {
          "internalType": "bool",
          "name": "completed",
          "type": "bool"
        }
      ],
      "stateMutability": "view",
      "type": "function"
    },
    {
      "inputs": [
        {
          "internalType": "string",
          "name": "_text",
          "type": "string"
        }
      ],
      "name": "create",
      "outputs": [],
      "stateMutability": "nonpayable",
      "type": "function"
    },
    {
      "inputs": [
        {
          "internalType": "uint256",
          "name": "_index",
          "type": "uint256"
        }
      ],
      "name": "get",
      "outputs": [
        {
          "internalType": "string",
          "name": "text",
          "type": "string"
        },
        {
          "internalType": "bool",
          "name": "completed",
          "type": "bool"
        }
      ],
      "stateMutability": "view",
      "type": "function"
    },
    {
      "inputs": [
        {
          "internalType": "uint256",
          "name": "_index",
          "type": "uint256"
        },
        {
          "internalType": "string",
          "name": "_text",
          "type": "string"
        }
      ],
      "name": "update",
      "outputs": [],
      "stateMutability": "nonpayable",
      "type": "function"
    },
    {
      "inputs": [
        {
          "internalType": "uint256",
          "name": "_index",
          "type": "uint256"
        }
      ],
      "name": "toggleCompleted",
      "outputs": [],
      "stateMutability": "nonpayable",
      "type": "function"
    }
  ],
  "bytecode": "0x608060405234801561001057600080fd5b5061081d806100206000396000f3fe608060405234801561001057600080fd5b50600436106100575760003560e01c8063455f50241461005c5780639507d39a1461008a578063b6a46b3b1461013a578063bc8bc2b4146101f5578063f745630f146102a5575b600080fd5b6100886004803603602081101561007257600080fd5b810190808035906020019092919050505061036a565b005b6100b6600480360360208110156100a057600080fd5b81019080803590602001909291905050506103ba565b60405180806020018315158152602001828103825284818151815260200191508051906020019080838360005b838110156100fe5780820151818401526020810190506100e3565b50505050905090810190601f16801561012b5780820380516001836020036101000a031916815260200191505b50935050505060405180910390f35b6101f36004803603602081101561015057600080fd5b810190808035906020019064010000000081111561016d57600080fd5b82018360208201111561017f57600080fd5b803590602001918460018302840111640100000000831117156101a157600080fd5b91908080601f016020809104026020016040519081016040528093929190818152602001838380828437600081840152601f19601f820116905080830192505050505050509192919290505050610498565b005b6102216004803603602081101561020b57600080fd5b810190808035906020019092919050505061061c565b60405180806020018315158152602001828103825284818151815260200191508051906020019080838360005b8381101561026957808201518184015260208101905061024e565b50505050905090810190601f1680156102965780820380516001836020036101000a031916815260200191505b50935050505060405180910390f35b610368600480360360408110156102bb57600080fd5b8101908080359060200190929190803590602001906401000000008111156102e257600080fd5b8201836020820111156102f457600080fd5b8035906020019184600183028401116401000000008311171561031657600080fd5b91908080601f016020809104026020016040519081016040528093929190818152602001838380828437600081840152601f19601f8201169050808301925050505050505091929192905050506106f2565b005b600080828154811061037857fe5b906000526020600020906002020190508060010160009054906101000a900460ff16158160010160006101000a81548160ff0219169083151502179055505050565b6060600080600084815481106103cc57fe5b90600052602060002090600202019050806000018160010160009054906101000a900460ff16818054600181600116156101000203166002900480601f0160208091040260200160405190810160405280929190818152602001828054600181600116156101000203166002900480156104875780601f1061045c57610100808354040283529160200191610487565b820191906000526020600020905b81548152906001019060200180831161046a57829003601f168201915b505050505091509250925050915091565b6000604051806040016040528083815260200160001515815250908060018154018082558091505060019003906000526020600020906002020160009091909190915060008201518160000190805190602001906104f792919061072e565b5060208201518160010160006101000a81548160ff021916908315150217905550505060006040518060400160405280838152602001600015158152509080600181540180825580915050600190039060005260206000209060020201600090919091909150600082015181600001908051906020019061057992919061072e565b5060208201518160010160006101000a81548160ff02191690831515021790555050506105a46107ae565b818160000181905250600081908060018154018082558091505060019003906000526020600020906002020160009091909190915060008201518160000190805190602001906105f592919061072e565b5060208201518160010160006101000a81548160ff02191690831515021790555050505050565b6000818154811061062957fe5b9060005260206000209060020201600091509050806000018054600181600116156101000203166002900480601f0160208091040260200160405190810160405280929190818152602001828054600181600116156101000203166002900480156106d55780601f106106aa576101008083540402835291602001916106d5565b820191906000526020600020905b8154815290600101906020018083116106b857829003601f168201915b5050505050908060010160009054906101000a900460ff16905082565b600080838154811061070057fe5b906000526020600020906002020190508181600001908051906020019061072892919061072e565b50505050565b828054600181600116156101000203166002900490600052602060002090601f016020900481019282601f1061076f57805160ff191683800117855561079d565b8280016001018555821561079d579182015b8281111561079c578251825591602001919060010190610781565b5b5090506107aa91906107ca565b5090565b6040518060400160405280606081526020016000151581525090565b5b808211156107e35760008160009055506001016107cb565b509056fea2646970667358221220b8381f4682ed86afe69593c1d2c2632e70085871108a027d38a173f93ac0331e64736f6c63430007000033",
  "immutableReferences": {},
  "source": "// SPDX-License-Identifier: MIT\r\npragma solidity ^0.7.0;\r\n\r\ncontract Todos {\r\n    struct Todo {\r\n        string text;\r\n        bool completed;\r\n    }\r\n\r\n    // An array of 'Todo' structs\r\n    Todo[] public todos;\r\n\r\n    function create(string memory _text) public {\r\n        // 3 ways to initialize a struct\r\n        // - calling it like a function\r\n        todos.push(Todo(_text, false));\r\n\r\n        // key value mapping\r\n        todos.push(Todo({text: _text, completed: false}));\r\n\r\n        // initialize an empty struct and then update it\r\n        Todo memory todo;\r\n        todo.text = _text;\r\n        // todo.completed initialized to false\r\n\r\n        todos.push(todo);\r\n    }\r\n\r\n    // Solidity automatically created a getter for 'todos' so\r\n    // you don't actually need this function.\r\n    function get(uint _index) public view returns (string memory text, bool completed) {\r\n        Todo storage todo = todos[_index];\r\n        return (todo.text, todo.completed);\r\n    }\r\n\r\n    // update text\r\n    function update(uint _index, string memory _text) public {\r\n        Todo storage todo = todos[_index];\r\n        todo.text = _text;\r\n    }\r\n\r\n    // update completed\r\n    function toggleCompleted(uint _index) public {\r\n        Todo storage todo = todos[_index];\r\n        todo.completed = !todo.completed;\r\n    }\r\n}",
  "sourcePath": "E:\\outSource\\blockchain\\product-authenticity-checker\\src\\contracts\\Todos.sol",
  "compiler": {
    "name": "solc",
    "version": "0.7.0+commit.9e61f92b.Emscripten.clang"
  },
  "schemaVersion": "3.4.7",
  "updatedAt": "2022-05-01T13:25:29.613Z",
  "devdoc": {
    "kind": "dev",
    "methods": {},
    "version": 1
  },
  "userdoc": {
    "kind": "user",
    "methods": {},
    "version": 1
  }
}